:020000040000FA
:100000000C9458000C9480000C9480000C94800098
:100010000C9480000C9480000C9480000C94800060
:100020000C9480000C9480000C9480000C94800050
:100030000C9480000C9480000C9480000C94800040
:100040000C94E4030C9480000C9480000C948000C9
:100050000C9480000C9480000C9480000C94800020
:100060000C942E040C948000000000002500280051
:100070002B00040404040404040402020202020229
:10008000030303030303010204081020408001025C
:1000900004081020010204081020000000080002DB
:1000A00001000003040700000000000000004D05EF
:1000B00011241FBECFEFD8E0DEBFCDBF11E0A0E01E
:1000C000B1E0EEEDFCE002C005900D92A635B1075F
:1000D000D9F722E0A6E5B1E001C01D92A133B20735
:1000E000E1F710E0C8E5D0E004C02197FE010E94CE
:1000F0006706C735D107C9F70E946D050C946D06D8
:100100000C94000090E0FC01E656FF4F2491FC01A6
:10011000EA57FF4F3491FC01EE58FF4FE491EE2374
:10012000C9F0222339F0233001F1A8F4213019F16C
:10013000223029F1F0E0EE0FFF1FE859FF4FA591A3
:10014000B4918FB7F894EC91611126C030953E239D
:100150003C938FBF08952730A9F02830C9F0243090
:1001600049F7809180008F7D03C0809180008F7758
:1001700080938000DFCF84B58F7784BDDBCF84B5DB
:100180008F7DFBCF8091B0008F778093B000D2CF6E
:100190008091B0008F7DF9CF3E2BDACF3FB7F89436
:1001A0008091150290911602A0911702B091180249
:1001B00026B5A89B05C02F3F19F00196A11DB11DC2
:1001C0003FBFBA2FA92F982F8827BC01CD01620FFE
:1001D000711D811D911D42E0660F771F881F991FB9
:1001E0004A95D1F708958F929F92AF92BF92CF9286
:1001F000DF92EF92FF924B015C010E94CE006B01F7
:100200007C010E94CE006C197D098E099F09683E11
:10021000734081059105A8F321E0821A9108A10895
:10022000B10888EEC80E83E0D81EE11CF11C8114D1
:100230009104A104B10429F7FF90EF90DF90CF90D3
:10024000BF90AF909F908F90089508950895AF92BA
:10025000BF92CF92DF92EF92FF920F931F93CF93B3
:10026000DF936C017B018B01040F151FEB015E0115
:10027000AE18BF08C017D10759F06991D601ED91AA
:10028000FC910190F081E02DC6010995892B79F749
:10029000C501DF91CF911F910F91FF90EF90DF90FB
:1002A000CF90BF90AF9008952091BE01260F3327C5
:1002B000331F21323105ECF42091E201FC0190E082
:1002C00080E0243069F082E00895A091BE01219180
:1002D000AC0142565E4FA40FB52FB11D2C93019671
:1002E000861798F38091BE01680F6093BE0180E08D
:1002F000089581E008951092E20181E08093E40185
:100300001092E30161E082E10E94820061E083E1FA
:100310000E948200E9EBF0E080818E7F8083808103
:100320008D7F808388E48093B80085E48093BC004F
:100330000895CF93DF9391E090939D018823B9F0C6
:10034000C091B800D091BA008091BC008A7B8093A4
:10035000BC0060E082E10E94820060E083E10E94D4
:1003600082000E947B01D093BA00C093B800DF9155
:10037000CF9108950895E0910F0280910E02E81741
:1003800030F4F0E0E858FE4F808190E008958FEF60
:100390009FEF089590910F0280910E022FEF3FEF93
:1003A000981748F4E92FF0E0E858FE4F208130E03C
:1003B0009F5F90930F02C901089580910E02909162
:1003C0000F02891B990B0895CF92DF92EF92FF9253
:1003D0000F931F93CF93DF937C01CB018A01209170
:1003E0007701222389F0EB016B01C40ED51ECC15D9
:1003F000DD0569F06991D701ED91FC910190F081E3
:10040000E02DC7010995F3CF642F0E945401C80164
:10041000DF91CF911F910F91FF90EF90DF90CF90E0
:100420000895CF93DF931F92CDB7DEB769832091F4
:1004300077012223F9F020910C02203258F021E0BC
:1004400030E0FC013383228390E080E00F90DF9165
:10045000CF91089580910D02E82FF0E0E95AFE4F08
:10046000998190838F5F80930D0280930C0281E0CD
:1004700090E0ECCF61E0CE0101960E945401F7CFED
:10048000CF92DF92EF92FF920F931F93CF93DF9360
:10049000FC01C48121E020937701C09356011092A2
:1004A0000D0210920C028385682B89E192E00E9474
:1004B0001102D0910C02D13208F092C00E94CE00FD
:1004C0006B017C018091E201811165C082E0809323
:1004D000E20181E08093E4018FEF8093E1011092CB
:1004E0000602D0930502A7E5B1E0E5EEF1E080E079
:1004F000D81385C01092070280910702CC0FC82B39
:10050000C09307028091E301813009F07CC0109212
:10051000E3010E94CE006B017C0180910702809371
:10052000BB008091990190919A01A0919B01B0919B
:100530009C01892B8A2B8B2B99F00E94CE00009175
:10054000990110919A0120919B0130919C016C19A5
:100550007D098E099F090617170728073907E0F15B
:100560008091BC0083FDD9CF85EC8093BC000E94B4
:10057000CE006B017C018091E201823009F445C01C
:100580008091E1018F3F61F18091E101803241F181
:100590008091E10125C08091990190919A01A091EB
:1005A0009B01B0919C01892B8A2B8B2B09F48ACF5C
:1005B0000E94CE000091990110919A0120919B0117
:1005C00030919C016C197D098E099F090617170748
:1005D0002807390708F076CF809198010E94990189
:1005E00010920D0210920C0210927701DF91CF91C0
:1005F0001F910F91FF90EF90DF90CF9008959D9104
:1006000091938F5F75CF85EEB0CF809199019091D6
:100610009A01A0919B01B0919C01892B8A2B8B2B75
:1006200009F4A9CF0E94CE000091990110919A017E
:1006300020919B0130919C016C197D098E099F09C5
:10064000061717072807390708F095CFC5CF089573
:1006500090E080E00895FC0101900020E9F73197D7
:10066000AF01481B590BBC0185E292E00C942701B5
:1006700085ED8093BC008091990190919A01A091A1
:100680009B01B0919C010796A11DB11D23E0B69579
:10069000A795979587952A95D1F72091BC0024FDC1
:1006A00003C01092E20108954091990150919A017E
:1006B00060919B0170919C01452B462B472B69F360
:1006C0000097A105B10541F02AE22A95F1F700C093
:1006D0000197A109B109E1CF809198010C9499018A
:1006E0000F931F93CF938C01C62F0E9440026C2F53
:1006F0006460C8010E9440026C2F6B7FC8010E9499
:10070000400283EC90E00197F1F7CF911F910F9198
:1007100008950F931F93CF93DF938C01D62FC42F8F
:10072000607F642B0E94700380E1D89FB001112488
:100730006C2BC801DF91CF911F910F910C94700326
:1007400040E061E085E292E00E9489038BE39FE153
:100750000197F1F70895CF93DF93CDB7DEB72897D0
:100760000FB6F894DEBF0FBECDBF98E0E0E0F1E039
:10077000DE01119601900D929A95E1F790912D026C
:10078000961708F46FEF262F30E0220F331F41E059
:1007900050E04C0F5D1F240F351FF9016081680F79
:1007A000606840E085E292E028960FB6F894DEBFDC
:1007B0000FBECDBFDF91CF910C94890341E00E9421
:1007C000890381E090E008951F920F920FB60F9277
:1007D00011242F933F938F939F93AF93BF93809157
:1007E000110290911202A0911302B0911402309163
:1007F000100223E0230F2D3758F50196A11DB11DDE
:10080000209310028093110290931202A09313027E
:10081000B09314028091150290911602A0911702D4
:10082000B09118020196A11DB11D809315029093FD
:100830001602A0931702B0931802BF91AF919F9137
:100840008F913F912F910F900FBE0F901F90189591
:1008500026E8230F0296A11DB11DD2CF1F920F9241
:100860000FB60F9211242F933F934F935F936F9383
:100870007F938F939F93AF93BF93EF93FF93809159
:10088000B900887F803609F44AC0F0F5883209F44F
:10089000A7C018F5803109F49BC0B8F4882309F487
:1008A000F9C0883009F494C0FF91EF91BF91AF91E6
:1008B0009F918F917F916F915F914F913F912F9178
:1008C0000F900FBE0F901F901895883109F488C0C3
:1008D000803251F78093E10114C0803409F49DC047
:1008E00040F48033B9F38833F9F68093E10185EC65
:1008F000B0C0803509F485C0883509F496C08834C5
:1009000099F60E943803D0CF883909F48CC038F5A5
:10091000883729F050F4883611F0803729F683E0C3
:100920008093E2011092E00157C0883809F47BC03F
:10093000803919F0803809F0B7CF8091E00180321A
:1009400008F071C0E091E00181E08E0F8093E0013A
:100950008091BB00F0E0E054FE4F80833DC0803BBF
:1009600039F0E0F4803A09F479C0883A09F09CCF74
:1009700084E08093E2011092BF011092BE01E091E9
:100980000A02F0910B0209958091BE0181110FC0FE
:1009900081E08093BE0110929E0109C0803C09F461
:1009A000A6CF883C09F4A3CF883B09F07DCFE09126
:1009B000BF0181E08E0F8093BF01F0E0E256FE4F51
:1009C00080818093BB009091BF018091BE0129C0BE
:1009D000809107028093BB0085EC8093BC0064CFBC
:1009E0009091060280910502981758F5E091060251
:1009F00081E08E0F80930602F0E0EB51FE4F808184
:100A0000E9CFE091060281E08E0F8093060280918B
:100A1000BB00F0E0EB51FE4F808390910602809185
:100A200005029817C8F285E8D8CFE091060281E068
:100A30008E0F809306028091BB00F0E0EB51FE4FD9
:100A400080838091E40181115CCF81E08093E30198
:100A500084EA8093BC001092E20126CF85EC80935B
:100A6000BC001092E2018091E001803230F4E0910C
:100A7000E001F0E0E054FE4F10826091E00170E090
:100A8000E0910802F091090280EC91E00995109242
:100A9000E0010ACF1092E10134CFE9E1F2E01382E4
:100AA000128288EE93E0A0E0B0E084839583A68371
:100AB000B7838CE091E091838083E5E2F2E01382DA
:100AC00012828EE191E09183808387E2848380E1CA
:100AD000818782E0828713860895789484B5826046
:100AE00084BD84B5816084BD85B5826085BD85B5D2
:100AF000816085BD80916E00816080936E00109250
:100B000081008091810082608093810080918100CA
:100B1000816080938100809180008160809380005B
:100B20008091B10084608093B1008091B0008160B9
:100B30008093B00080917A00846080937A008091E5
:100B40007A00826080937A0080917A00816080933D
:100B50007A0080917A00806880937A001092C100B8
:100B600010920F0210920E0210920D0210920C02BF
:100B70000E947B0185E291E090930B0280930A0230
:100B800086E291E0909309028093080210922A0273
:100B900080912F02823018F098E090932A0280937F
:100BA0002D0262E370E080E090E00E94F30060912B
:100BB000300285E292E00E94400268EE73E080E03D
:100BC00090E00E94F30060E385E292E00E947003EF
:100BD000CBE4D6E4CE010197F1F760E385E292E041
:100BE0000E9470032197F1F760E385E292E00E9492
:100BF000700383E592E00197F1F760E285E292E00D
:100C00000E94700360912A02606240E085E292E0F7
:100C10000E94890384E080932B0240E06CE085E22F
:100C200092E00E9489030E94A00382E080932C023C
:100C300040E066E085E292E00E94890340E062E0E5
:100C400085E292E00E9489038BE39FE10197F1F72F
:100C500088E08093300260E085E292E00E944002EA
:100C6000C0E0D0E00E94A00360E080E00E94AB03FF
:100C700086E291E00E942B0361E082E00E94AB03D8
:100C80008EE291E00E942B0360ED77E080E090E03F
:100C90000E94F3000E94A00360E083E00E94AB0387
:100CA0008DE391E00E942B0361E080E00E94AB03A2
:100CB00086E491E00E942B0360ED77E080E090E015
:100CC0000E94F300209771F20E940000CBCFEE0F3C
:100CD000FF1F0590F491E02D0994F894FFCF0000D8
:100CE000400014005400000000001102E401280339
:100CF000BA01DD01CA01BB0100000000DE032701CB
:100D00002803270341726475696E6F004765745349
:100D10007461727465642E636F6D00444959616239
:100D20006C6573007777772E64697961626C65739F
:040D30002E696F00B9
:107E0000112484B714BE81FFF0D085E080938100F7
:107E100082E08093C00088E18093C10086E0809377
:107E2000C20080E18093C4008EE0C9D0259A86E02C
:107E300020E33CEF91E0309385002093840096BBD3
:107E4000B09BFECF1D9AA8958150A9F7CC24DD24C4
:107E500088248394B5E0AB2EA1E19A2EF3E0BF2EE7
:107E6000A2D0813461F49FD0082FAFD0023811F036
:107E7000013811F484E001C083E08DD089C08234E0
:107E800011F484E103C0853419F485E0A6D080C0E4
:107E9000853579F488D0E82EFF2485D0082F10E0AE
:107EA000102F00270E291F29000F111F8ED06801E7
:107EB0006FC0863521F484E090D080E0DECF843638
:107EC00009F040C070D06FD0082F6DD080E0C81688
:107ED00080E7D80618F4F601B7BEE895C0E0D1E017
:107EE00062D089930C17E1F7F0E0CF16F0E7DF06D8
:107EF00018F0F601B7BEE89568D007B600FCFDCFD4
:107F0000A601A0E0B1E02C9130E011968C91119780
:107F100090E0982F8827822B932B1296FA010C0160
:107F200087BEE89511244E5F5F4FF1E0A038BF0790
:107F300051F7F601A7BEE89507B600FCFDCF97BE46
:107F4000E89526C08437B1F42ED02DD0F82E2BD052
:107F50003CD0F601EF2C8F010F5F1F4F84911BD097
:107F6000EA94F801C1F70894C11CD11CFA94CF0C13
:107F7000D11C0EC0853739F428D08EE10CD085E9AC
:107F80000AD08FE07ACF813511F488E018D01DD067
:107F900080E101D065CF982F8091C00085FFFCCF94
:107FA0009093C60008958091C00087FFFCCF809118
:107FB000C00084FD01C0A8958091C6000895E0E648
:107FC000F0E098E1908380830895EDDF803219F02E
:107FD00088E0F5DFFFCF84E1DECF1F93182FE3DFCA
:107FE0001150E9F7F2DF1F91089580E0E8DFEE27F6
:047FF000FF270994CA
:027FFE00040479
:00000001FF
